:100000000C943E000C9448000C9448000C9448005A
:100010000C9448000C9448000C9448000C94480040
:100020000C9448000C9448000C9448000C94480030
:100030000C9448000C9448000C9448000C94480020
:100040000C9448000C9448000C9448000C94480010
:100050000C9448000C9448000C9448000C94480000
:100060000C9448000C944800530055005700590068
:100070005B005D005F0061005300630011241FBE40
:10008000CFEFD8E0DEBFCDBF0E9468000C948000A7
:100090000C94000090E08A309105B8F4FC01EC5C0F
:1000A000FF4F0C947A008FE311C086E00FC08BE500
:1000B0000DC08FE40BC086E609C08DE607C08DE752
:1000C00005C087E003C08FEE01C080E08BB90895C2
:1000D0008FEF8AB98BB9C0E08C2F0E944A00CF5FA6
:1000E0002FEF83ED90E3215080409040E1F700C076
:1000F0000000F2CFEE0FFF1F0590F491E02D099460
:04010000F894FFCFA1
:00000001FF
