S01A0000547269616C5F706F72744F7574536576656E2E73726563B1
S11300000C943E000C9448000C9448000C94480056
S11300100C9448000C9448000C9448000C9448003C
S11300200C9448000C9448000C9448000C9448002C
S11300300C9448000C9448000C9448000C9448001C
S11300400C9448000C9448000C9448000C9448000C
S11300500C9448000C9448000C9448000C944800FC
S11300600C9448000C944800670053005500570056
S113007059005B005D005F006100630011241FBE36
S1130080CFEFD8E0DEBFCDBF0E946A000C94910090
S11300900C94000090E08A309105B8F4FC01EC5C0B
S11300A0FF4F0C948B0086E013C08BE511C08FE4E6
S11300B00FC086E60DC08DE60BC08DE709C087E052
S11300C007C08FE705C08FE603C080E801C08FE357
S11300D08BB908958FEF8AB98BB980E00E944A00EA
S11300E02FEF83EC99E0215080409040E1F700C06D
S11300F00000C1E08C2F0E944A00CF5F2FEF83ECF9
S113010099E0215080409040E1F700C00000CA30DF
S113011088F3C0E0EFCFEE0FFF1F0590F491E02DC0
S10901200994F894FFCFDE
S9030000FC
